{
  "contractName": "InfinitePoints",
  "abi": [
    {
      "constant": true,
      "inputs": [],
      "name": "getAccountInfo",
      "outputs": [
        {
          "name": "",
          "type": "bytes32"
        },
        {
          "name": "",
          "type": "uint256"
        },
        {
          "name": "",
          "type": "bool"
        }
      ],
      "payable": false,
      "type": "function",
      "stateMutability": "view"
    },
    {
      "constant": false,
      "inputs": [
        {
          "name": "merchant",
          "type": "address"
        },
        {
          "name": "point",
          "type": "uint256"
        }
      ],
      "name": "getWCoin",
      "outputs": [
        {
          "name": "",
          "type": "uint256"
        }
      ],
      "payable": false,
      "type": "function",
      "stateMutability": "nonpayable"
    },
    {
      "constant": false,
      "inputs": [
        {
          "name": "merchant",
          "type": "address"
        },
        {
          "name": "point",
          "type": "uint256"
        }
      ],
      "name": "addPoints",
      "outputs": [
        {
          "name": "",
          "type": "string"
        }
      ],
      "payable": false,
      "type": "function",
      "stateMutability": "nonpayable"
    },
    {
      "constant": false,
      "inputs": [
        {
          "name": "x",
          "type": "address"
        },
        {
          "name": "customer",
          "type": "address"
        }
      ],
      "name": "toString",
      "outputs": [
        {
          "name": "",
          "type": "string"
        }
      ],
      "payable": false,
      "type": "function",
      "stateMutability": "nonpayable"
    },
    {
      "constant": true,
      "inputs": [
        {
          "name": "merchant",
          "type": "address"
        },
        {
          "name": "customer",
          "type": "address"
        }
      ],
      "name": "getPoints",
      "outputs": [
        {
          "name": "",
          "type": "uint256"
        }
      ],
      "payable": false,
      "type": "function",
      "stateMutability": "view"
    },
    {
      "constant": false,
      "inputs": [
        {
          "name": "b",
          "type": "bytes1"
        },
        {
          "name": "to",
          "type": "address"
        },
        {
          "name": "amount",
          "type": "uint256"
        }
      ],
      "name": "char",
      "outputs": [
        {
          "name": "c",
          "type": "bytes1"
        }
      ],
      "payable": false,
      "type": "function",
      "stateMutability": "nonpayable"
    },
    {
      "constant": false,
      "inputs": [
        {
          "name": "name",
          "type": "bytes32"
        },
        {
          "name": "eth",
          "type": "address"
        },
        {
          "name": "isMerchant",
          "type": "bool"
        },
        {
          "name": "rate",
          "type": "uint256"
        }
      ],
      "name": "signup",
      "outputs": [
        {
          "name": "",
          "type": "address"
        }
      ],
      "payable": false,
      "type": "function",
      "stateMutability": "nonpayable"
    },
    {
      "constant": false,
      "inputs": [
        {
          "name": "merchant",
          "type": "address"
        },
        {
          "name": "eth",
          "type": "address"
        },
        {
          "name": "isMerchant",
          "type": "bool"
        },
        {
          "name": "rate",
          "type": "uint256"
        }
      ],
      "name": "getMerchantRate",
      "outputs": [
        {
          "name": "",
          "type": "uint256"
        }
      ],
      "payable": false,
      "type": "function",
      "stateMutability": "nonpayable"
    },
    {
      "constant": false,
      "inputs": [
        {
          "name": "merchantFrom",
          "type": "address"
        },
        {
          "name": "merchantTo",
          "type": "address"
        },
        {
          "name": "to",
          "type": "address"
        },
        {
          "name": "amount",
          "type": "uint256"
        }
      ],
      "name": "exchangePoints",
      "outputs": [
        {
          "name": "",
          "type": "uint256"
        }
      ],
      "payable": false,
      "type": "function",
      "stateMutability": "nonpayable"
    },
    {
      "inputs": [
        {
          "name": "merchant",
          "type": "address"
        },
        {
          "name": "amount",
          "type": "uint256"
        },
        {
          "name": "amount",
          "type": "uint256"
        }
      ],
      "payable": false,
      "type": "function",
      "stateMutability": "nonpayable",
      "constant": false,
      "name": "exchangeToWCoin",
      "outputs": []
    },
    {
      "constant": true,
      "inputs": [
        {
          "name": "merchantFrom",
          "type": "address"
        },
        {
          "name": "merchantTo",
          "type": "address"
        },
        {
          "name": "to",
          "type": "address"
        },
        {
          "name": "amount",
          "type": "uint256"
        }
      ],
      "name": "getMerchants",
      "outputs": [
        {
          "name": "",
          "type": "string"
        }
      ],
      "payable": false,
      "stateMutability": "view",
      "type": "function"
    },
    {
      "inputs": [
        {
          "name": "merchant",
          "type": "address"
        },
        {
          "name": "point",
          "type": "uint256"
        }
      ],
      "payable": false,
      "stateMutability": "nonpayable",
      "type": "function",
      "constant": false,
      "name": "subPoints",
      "outputs": [
        {
          "name": "",
          "type": "string"
        }
      ]
    },
    {
      "inputs": [],
      "payable": false,
      "stateMutability": "nonpayable",
      "type": "constructor",
      "constant": true,
      "name": "getMerchants",
      "outputs": [
        {
          "name": "",
          "type": "string"
        }
      ]
    },
    {
      "inputs": [],
      "payable": false,
      "stateMutability": "nonpayable",
      "type": "constructor"
    }
  ],
  "bytecode": "0x6060604052341561000f57600080fd5b336000806101000a81548173ffffffffffffffffffffffffffffffffffffffff021916908373ffffffffffffffffffffffffffffffffffffffff1602179055506117838061005e6000396000f3006060604052600436106100ba576000357c0100000000000000000000000000000000000000000000000000000000900463ffffffff1680631b9e16ad146100bf57806349d1555114610102578063507cd30f1461014f57806356ca623e1461019157806365992abf1461024357806369f9ad2f146102af578063732f21771461034c57806374b920f9146103e6578063b9b9620114610433578063d71a539d146104b3578063e2d1800f146104f5578063f3fff9d714610583575b600080fd5b34156100ca57600080fd5b6100d26105c5565b60405180846000191660001916815260200183815260200182151515158152602001935050505060405180910390f35b341561010d57600080fd5b610139600480803573ffffffffffffffffffffffffffffffffffffffff16906020019091905050610634565b6040518082815260200191505060405180910390f35b341561015a57600080fd5b61018f600480803573ffffffffffffffffffffffffffffffffffffffff16906020019091908035906020019091905050610754565b005b341561019c57600080fd5b6101c8600480803573ffffffffffffffffffffffffffffffffffffffff169060200190919050506108ba565b6040518080602001828103825283818151815260200191508051906020019080838360005b838110156102085780820151818401526020810190506101ed565b50505050905090810190601f1680156102355780820380516001836020036101000a031916815260200191505b509250505060405180910390f35b341561024e57600080fd5b610299600480803573ffffffffffffffffffffffffffffffffffffffff1690602001909190803573ffffffffffffffffffffffffffffffffffffffff16906020019091905050610b09565b6040518082815260200191505060405180910390f35b34156102ba57600080fd5b6102f260048080357effffffffffffffffffffffffffffffffffffffffffffffffffffffffffffff1916906020019091905050610b90565b60405180827effffffffffffffffffffffffffffffffffffffffffffffffffffffffffffff19167effffffffffffffffffffffffffffffffffffffffffffffffffffffffffffff1916815260200191505060405180910390f35b341561035757600080fd5b6103a460048080356000191690602001909190803573ffffffffffffffffffffffffffffffffffffffff169060200190919080351515906020019091908035906020019091905050610c80565b604051808273ffffffffffffffffffffffffffffffffffffffff1673ffffffffffffffffffffffffffffffffffffffff16815260200191505060405180910390f35b34156103f157600080fd5b61041d600480803573ffffffffffffffffffffffffffffffffffffffff16906020019091905050610e58565b6040518082815260200191505060405180910390f35b341561043e57600080fd5b6104b1600480803573ffffffffffffffffffffffffffffffffffffffff1690602001909190803573ffffffffffffffffffffffffffffffffffffffff1690602001909190803573ffffffffffffffffffffffffffffffffffffffff16906020019091908035906020019091905050610f0a565b005b34156104be57600080fd5b6104f3600480803573ffffffffffffffffffffffffffffffffffffffff169060200190919080359060200190919050506110e5565b005b341561050057600080fd5b610508611293565b6040518080602001828103825283818151815260200191508051906020019080838360005b8381101561054857808201518184015260208101905061052d565b50505050905090810190601f1680156105755780820380516001836020036101000a031916815260200191505b509250505060405180910390f35b341561058e57600080fd5b6105c3600480803573ffffffffffffffffffffffffffffffffffffffff169060200190919080359060200190919050506113f0565b005b600080600080600460003373ffffffffffffffffffffffffffffffffffffffff1673ffffffffffffffffffffffffffffffffffffffff1681526020019081526020016000209050806000015481600201548260010160009054906101000a900460ff1693509350935050909192565b6000806000600160008573ffffffffffffffffffffffffffffffffffffffff1673ffffffffffffffffffffffffffffffffffffffff16815260200190815260200160002060003373ffffffffffffffffffffffffffffffffffffffff1673ffffffffffffffffffffffffffffffffffffffff168152602001908152602001600020541115156106c257600080fd5b6106cb83610e58565b905080600160008573ffffffffffffffffffffffffffffffffffffffff1673ffffffffffffffffffffffffffffffffffffffff16815260200190815260200160002060003373ffffffffffffffffffffffffffffffffffffffff1673ffffffffffffffffffffffffffffffffffffffff1681526020019081526020016000205402915050919050565b60008111151561076357600080fd5b61076c33611541565b15151561077857600080fd5b61078182611541565b151561078c57600080fd5b80600160008473ffffffffffffffffffffffffffffffffffffffff1673ffffffffffffffffffffffffffffffffffffffff16815260200190815260200160002060003373ffffffffffffffffffffffffffffffffffffffff1673ffffffffffffffffffffffffffffffffffffffff16815260200190815260200160002060008282540192505081905550600260003373ffffffffffffffffffffffffffffffffffffffff1673ffffffffffffffffffffffffffffffffffffffff168152602001908152602001600020805480600101828161086791906116c4565b9160005260206000209001600084909190916101000a81548173ffffffffffffffffffffffffffffffffffffffff021916908373ffffffffffffffffffffffffffffffffffffffff160217905550505050565b6108c26116f0565b6108ca611704565b60008060008060286040518059106108df5750595b9080825280601f01601f19166020018201604052509450600093505b6014841015610abe578360130360080260020a8773ffffffffffffffffffffffffffffffffffffffff1681151561092e57fe5b047f01000000000000000000000000000000000000000000000000000000000000000292506010837f0100000000000000000000000000000000000000000000000000000000000000900460ff1681151561098557fe5b047f0100000000000000000000000000000000000000000000000000000000000000029150817f01000000000000000000000000000000000000000000000000000000000000009004601002837f01000000000000000000000000000000000000000000000000000000000000009004037f0100000000000000000000000000000000000000000000000000000000000000029050610a2382610b90565b8585600202815181101515610a3457fe5b9060200101907effffffffffffffffffffffffffffffffffffffffffffffffffffffffffffff1916908160001a905350610a6d81610b90565b8560018660020201815181101515610a8157fe5b9060200101907effffffffffffffffffffffffffffffffffffffffffffffffffffffffffffff1916908160001a90535083806001019450506108fb565b610afd6040805190810160405280600281526020017f30780000000000000000000000000000000000000000000000000000000000008152508661159a565b95505050505050919050565b6000600160008473ffffffffffffffffffffffffffffffffffffffff1673ffffffffffffffffffffffffffffffffffffffff16815260200190815260200160002060008373ffffffffffffffffffffffffffffffffffffffff1673ffffffffffffffffffffffffffffffffffffffff16815260200190815260200160002054905092915050565b6000600a7f010000000000000000000000000000000000000000000000000000000000000002827effffffffffffffffffffffffffffffffffffffffffffffffffffffffffffff19161015610c2f576030827f01000000000000000000000000000000000000000000000000000000000000009004017f0100000000000000000000000000000000000000000000000000000000000000029050610c7b565b6057827f01000000000000000000000000000000000000000000000000000000000000009004017f01000000000000000000000000000000000000000000000000000000000000000290505b919050565b6000821580610cdb57506000809054906101000a900473ffffffffffffffffffffffffffffffffffffffff1673ffffffffffffffffffffffffffffffffffffffff163373ffffffffffffffffffffffffffffffffffffffff16145b1515610ce657600080fd5b821580610cf4575060018210155b1515610cff57600080fd5b6000600102600460008673ffffffffffffffffffffffffffffffffffffffff1673ffffffffffffffffffffffffffffffffffffffff16815260200190815260200160002060000154600019161415610e4c5784600460008673ffffffffffffffffffffffffffffffffffffffff1673ffffffffffffffffffffffffffffffffffffffff168152602001908152602001600020600001816000191690555082600460008673ffffffffffffffffffffffffffffffffffffffff1673ffffffffffffffffffffffffffffffffffffffff16815260200190815260200160002060010160006101000a81548160ff0219169083151502179055508215610e445781600460008673ffffffffffffffffffffffffffffffffffffffff1673ffffffffffffffffffffffffffffffffffffffff168152602001908152602001600020600201819055505b839050610e50565b8390505b949350505050565b6000610e6382611541565b1515610e6e57600080fd5b6001600460008473ffffffffffffffffffffffffffffffffffffffff1673ffffffffffffffffffffffffffffffffffffffff1681526020019081526020016000206002015410151515610ec057600080fd5b600460008373ffffffffffffffffffffffffffffffffffffffff1673ffffffffffffffffffffffffffffffffffffffff168152602001908152602001600020600201549050919050565b610f1384611541565b158015610f265750610f2482611541565b155b1515610f3157600080fd5b600081111515610f4057600080fd5b80600160008673ffffffffffffffffffffffffffffffffffffffff1673ffffffffffffffffffffffffffffffffffffffff16815260200190815260200160002060003373ffffffffffffffffffffffffffffffffffffffff1673ffffffffffffffffffffffffffffffffffffffff1681526020019081526020016000205410151515610fcb57600080fd5b80600160008673ffffffffffffffffffffffffffffffffffffffff1673ffffffffffffffffffffffffffffffffffffffff16815260200190815260200160002060003373ffffffffffffffffffffffffffffffffffffffff1673ffffffffffffffffffffffffffffffffffffffff1681526020019081526020016000206000828254039250508190555080600160008573ffffffffffffffffffffffffffffffffffffffff1673ffffffffffffffffffffffffffffffffffffffff16815260200190815260200160002060008473ffffffffffffffffffffffffffffffffffffffff1673ffffffffffffffffffffffffffffffffffffffff1681526020019081526020016000206000828254019250508190555050505050565b60006110f083611541565b15156110fb57600080fd5b61110433611541565b15151561111057600080fd5b6000600160008573ffffffffffffffffffffffffffffffffffffffff1673ffffffffffffffffffffffffffffffffffffffff16815260200190815260200160002060003373ffffffffffffffffffffffffffffffffffffffff1673ffffffffffffffffffffffffffffffffffffffff1681526020019081526020016000205411151561119b57600080fd5b6000821115156111aa57600080fd5b6111b383610e58565b905081600160008573ffffffffffffffffffffffffffffffffffffffff1673ffffffffffffffffffffffffffffffffffffffff16815260200190815260200160002060003373ffffffffffffffffffffffffffffffffffffffff1673ffffffffffffffffffffffffffffffffffffffff16815260200190815260200160002060008282540392505081905550808202600360003373ffffffffffffffffffffffffffffffffffffffff1673ffffffffffffffffffffffffffffffffffffffff16815260200190815260200160002060008282540192505081905550505050565b61129b6116f0565b6112a36116f0565b600060206040519081016040528060008152509150600090505b600260003373ffffffffffffffffffffffffffffffffffffffff1673ffffffffffffffffffffffffffffffffffffffff168152602001908152602001600020805490508110156113e85760008111156113525761134f826040805190810160405280600181526020017f2c0000000000000000000000000000000000000000000000000000000000000081525061159a565b91505b6113db826113d6600260003373ffffffffffffffffffffffffffffffffffffffff1673ffffffffffffffffffffffffffffffffffffffff168152602001908152602001600020848154811015156113a557fe5b906000526020600020900160009054906101000a900473ffffffffffffffffffffffffffffffffffffffff166108ba565b61159a565b91508060010190506112bd565b819250505090565b6000811115156113ff57600080fd5b61140833611541565b15151561141457600080fd5b61141d82611541565b151561142857600080fd5b80600160008473ffffffffffffffffffffffffffffffffffffffff1673ffffffffffffffffffffffffffffffffffffffff16815260200190815260200160002060003373ffffffffffffffffffffffffffffffffffffffff1673ffffffffffffffffffffffffffffffffffffffff16815260200190815260200160002054101515156114b357600080fd5b80600160008473ffffffffffffffffffffffffffffffffffffffff1673ffffffffffffffffffffffffffffffffffffffff16815260200190815260200160002060003373ffffffffffffffffffffffffffffffffffffffff1673ffffffffffffffffffffffffffffffffffffffff168152602001908152602001600020600082825403925050819055505050565b6000600460008373ffffffffffffffffffffffffffffffffffffffff1673ffffffffffffffffffffffffffffffffffffffff16815260200190815260200160002060010160009054906101000a900460ff169050919050565b6115a26116f0565b6115c56115ae836115cd565b6115b7856115cd565b6115fb90919063ffffffff16565b905092915050565b6115d5611718565b600060208301905060408051908101604052808451815260200182815250915050919050565b6116036116f0565b61160b6116f0565b600083600001518560000151016040518059106116255750595b9080825280601f01601f191660200182016040525091506020820190506116558186602001518760000151611679565b61166e8560000151820185602001518660000151611679565b819250505092915050565b60005b6020821015156116a1578251845260208401935060208301925060208203915061167c565b6001826020036101000a0390508019835116818551168181178652505050505050565b8154818355818115116116eb578183600052602060002091820191016116ea9190611732565b5b505050565b602060405190810160405280600081525090565b602060405190810160405280600081525090565b604080519081016040528060008152602001600081525090565b61175491905b80821115611750576000816000905550600101611738565b5090565b905600a165627a7a7230582063660572493bafda91005508052c8afb6b0d92bccd3d979d48cce195fef941230029",
  "source": "pragma solidity ^0.4.9;\nimport \"./utils/strings.sol\";\n\ncontract InfinitePoints {\n    using strings for *;\n\n    address owner;\n\n    // mapping (merchant => mapping (customer => points))\n    mapping(address => mapping (address => uint256)) points;\n    // mapping (customer => merchants[])\n    mapping(address => address[]) merchants;\n    // mapping (customer => wcoin)\n    mapping(address => uint256) wcoins;\n\n    struct Account {\n      bytes32 name;\n      bool isMerchant;\n      uint256 rate;\n    }\n\n    mapping (address => Account) private accounts;\n\n    function InfinitePoints () {\n        owner = msg.sender;\n    }\n\n    function concat (string s1, string s2) internal returns (string) {\n        return s1.toSlice().concat(s2.toSlice());\n    }\n\n    function char(byte b) returns (byte c) {\n        if (b < 10) return byte(uint8(b) + 0x30);\n        else return byte(uint8(b) + 0x57);\n    }\n\n    function toString(address x) returns (string) {\n        bytes memory s = new bytes(40);\n        for (uint i = 0; i < 20; i++) {\n            byte b = byte(uint8(uint(x) / (2 ** (8 * (19 - i)))));\n            byte hi = byte(uint8(b) / 16);\n            byte lo = byte(uint8(b) - 16 * uint8(hi));\n            s[2 * i] = char(hi);\n            s[2 * i + 1] = char(lo);\n        }\n        return concat(\"0x\", string(s));\n    }\n\n    function signup(bytes32 name, address eth, bool isMerchant, uint256 rate) returns (address) {\n        require(!isMerchant || msg.sender == owner);\n        require(!isMerchant || rate >= 1);\n\n        if (accounts[eth].name == 0x0) {\n            accounts[eth].name = name;\n            accounts[eth].isMerchant = isMerchant;\n            if (isMerchant) {\n                accounts[eth].rate = rate;\n            }\n            return (eth);\n        }\n\n        return (eth);\n    }\n\n    function getAccountInfo () constant public returns (bytes32, uint256, bool) {\n        Account acc = accounts[msg.sender];\n        return (acc.name, acc.rate, acc.isMerchant);\n    }\n\n    function addPoints (address merchant, uint256 point) public {\n        require(point > 0);\n        require(!isMerchant(msg.sender));\n        require(isMerchant(merchant));\n\n        points[merchant][msg.sender] += point;\n        merchants[msg.sender].push(merchant);\n    }\n\n    function subPoints (address merchant, uint256 point) public {\n        require(point > 0);\n        require(!isMerchant(msg.sender));\n        require(isMerchant(merchant));\n        require(points[merchant][msg.sender] >= point);\n\n        points[merchant][msg.sender] -= point;\n    }\n    \n    function getPoints (address merchant, address customer) constant public returns (uint256) {\n        return points[merchant][customer];\n    }\n\n    function getMerchants () constant public returns (string) {\n        string memory merchantList = \"\";\n        for (uint i = 0; i < merchants[msg.sender].length; ++i) {\n            if (i > 0) merchantList = concat(merchantList, \",\");\n            merchantList = concat(merchantList, toString(merchants[msg.sender][i]));\n        }\n        return merchantList;\n    }\n\n    function exchangePoints(address merchantFrom, address merchantTo, address to, uint256 amount) public {\n        require(!isMerchant(merchantFrom) && !isMerchant(to));\n        require(amount > 0);\n        require(points[merchantFrom][msg.sender] >= amount);\n        \n        points[merchantFrom][msg.sender] -= amount;\n        points[merchantTo][to] += amount;\n    }\n\n    function getMerchantRate (address merchant) public returns (uint256) {\n        require(isMerchant(merchant));\n        require(accounts[merchant].rate >= 1);\n        return accounts[merchant].rate;\n    }\n\n    function getWCoin (address merchant) public returns (uint256) {\n        require(points[merchant][msg.sender] > 0);\n        uint256 rate = getMerchantRate(merchant);\n        return points[merchant][msg.sender] * rate;\n    }\n\n    function exchangeToWCoin (address merchant, uint256 amount) public {\n        require(isMerchant(merchant)); // \n        require(!isMerchant(msg.sender)); // only customer can exchange points to wcoin\n        require(points[merchant][msg.sender] > 0);\n        require(amount > 0);\n\n        uint256 rate = getMerchantRate(merchant);\n\n        points[merchant][msg.sender] -= amount;\n        wcoins[msg.sender] += amount * rate;\n    }\n\n    function isMerchant (address id) constant internal returns (bool) {\n        return accounts[id].isMerchant;\n    }\n}\n",
  "sourcePath": "/Users/ninhdh/workspace/blockchain/blockathon/contracts/InfinitePoints.sol",
  "compiler": {
    "name": "solc",
    "version": "0.4.18+commit.9cf6e910.Emscripten.clang"
  },
  "schemaVersion": "1.0.1",
  "updatedAt": "2017-11-25T03:17:30.364Z"
}