{
  "contractName": "InfinitePoints",
  "abi": [
    {
      "constant": true,
      "inputs": [],
      "name": "getAccountInfo",
      "outputs": [
        {
          "name": "",
          "type": "bytes32"
        },
        {
          "name": "",
          "type": "uint256"
        },
        {
          "name": "",
          "type": "bool"
        }
      ],
      "payable": false,
      "type": "function",
      "stateMutability": "view"
    },
    {
      "constant": false,
      "inputs": [
        {
          "name": "merchant",
          "type": "address"
        },
        {
          "name": "point",
          "type": "uint256"
        }
      ],
      "name": "getWCoin",
      "outputs": [
        {
          "name": "",
          "type": "uint256"
        }
      ],
      "payable": false,
      "type": "function",
      "stateMutability": "nonpayable"
    },
    {
      "constant": false,
      "inputs": [
        {
          "name": "customer",
          "type": "address"
        },
        {
          "name": "point",
          "type": "uint256"
        }
      ],
      "name": "addPoints",
      "outputs": [
        {
          "name": "",
          "type": "string"
        }
      ],
      "payable": false,
      "type": "function",
      "stateMutability": "nonpayable"
    },
    {
      "constant": false,
      "inputs": [
        {
          "name": "x",
          "type": "address"
        },
        {
          "name": "customer",
          "type": "address"
        }
      ],
      "name": "toString",
      "outputs": [
        {
          "name": "",
          "type": "string"
        }
      ],
      "payable": false,
      "type": "function",
      "stateMutability": "nonpayable"
    },
    {
      "constant": true,
      "inputs": [
        {
          "name": "merchant",
          "type": "address"
        },
        {
          "name": "customer",
          "type": "address"
        }
      ],
      "name": "getPoints",
      "outputs": [
        {
          "name": "",
          "type": "uint256"
        }
      ],
      "payable": false,
      "type": "function",
      "stateMutability": "view"
    },
    {
      "constant": false,
      "inputs": [
        {
          "name": "b",
          "type": "bytes1"
        },
        {
          "name": "to",
          "type": "address"
        },
        {
          "name": "amount",
          "type": "uint256"
        }
      ],
      "name": "char",
      "outputs": [
        {
          "name": "c",
          "type": "bytes1"
        }
      ],
      "payable": false,
      "type": "function",
      "stateMutability": "nonpayable"
    },
    {
      "constant": false,
      "inputs": [
        {
          "name": "name",
          "type": "bytes32"
        },
        {
          "name": "eth",
          "type": "address"
        },
        {
          "name": "isMerchant",
          "type": "bool"
        },
        {
          "name": "rate",
          "type": "uint256"
        }
      ],
      "name": "signup",
      "outputs": [
        {
          "name": "",
          "type": "address"
        }
      ],
      "payable": false,
      "type": "function",
      "stateMutability": "nonpayable"
    },
    {
      "constant": false,
      "inputs": [
        {
          "name": "merchant",
          "type": "address"
        },
        {
          "name": "eth",
          "type": "address"
        },
        {
          "name": "isMerchant",
          "type": "bool"
        },
        {
          "name": "rate",
          "type": "uint256"
        }
      ],
      "name": "getMerchantRate",
      "outputs": [
        {
          "name": "",
          "type": "uint256"
        }
      ],
      "payable": false,
      "type": "function",
      "stateMutability": "nonpayable"
    },
    {
      "constant": false,
      "inputs": [
        {
          "name": "merchantFrom",
          "type": "address"
        },
        {
          "name": "merchantTo",
          "type": "address"
        },
        {
          "name": "to",
          "type": "address"
        },
        {
          "name": "amount",
          "type": "uint256"
        }
      ],
      "name": "exchangePoints",
      "outputs": [
        {
          "name": "",
          "type": "uint256"
        }
      ],
      "payable": false,
      "type": "function",
      "stateMutability": "nonpayable"
    },
    {
      "inputs": [
        {
          "name": "merchant",
          "type": "address"
        },
        {
          "name": "amount",
          "type": "uint256"
        },
        {
          "name": "amount",
          "type": "uint256"
        }
      ],
      "payable": false,
      "type": "function",
      "stateMutability": "nonpayable",
      "constant": false,
      "name": "exchangeToWCoin",
      "outputs": []
    },
    {
      "constant": true,
      "inputs": [
        {
          "name": "merchantFrom",
          "type": "address"
        },
        {
          "name": "merchantTo",
          "type": "address"
        },
        {
          "name": "to",
          "type": "address"
        },
        {
          "name": "amount",
          "type": "uint256"
        }
      ],
      "name": "getMerchants",
      "outputs": [
        {
          "name": "",
          "type": "string"
        }
      ],
      "payable": false,
      "stateMutability": "view",
      "type": "function"
    },
    {
      "inputs": [
        {
          "name": "customer",
          "type": "address"
        },
        {
          "name": "point",
          "type": "uint256"
        }
      ],
      "payable": false,
      "stateMutability": "nonpayable",
      "type": "function",
      "constant": false,
      "name": "subPoints",
      "outputs": [
        {
          "name": "",
          "type": "string"
        }
      ]
    },
    {
      "inputs": [],
      "payable": false,
      "stateMutability": "nonpayable",
      "type": "constructor",
      "constant": true,
      "name": "getMerchants",
      "outputs": [
        {
          "name": "",
          "type": "string"
        }
      ]
    },
    {
      "inputs": [],
      "payable": false,
      "stateMutability": "nonpayable",
      "type": "constructor"
    }
  ],
  "bytecode": "0x6060604052341561000f57600080fd5b336000806101000a81548173ffffffffffffffffffffffffffffffffffffffff021916908373ffffffffffffffffffffffffffffffffffffffff1602179055506118be8061005e6000396000f3006060604052600436106100ba576000357c0100000000000000000000000000000000000000000000000000000000900463ffffffff1680631b9e16ad146100bf57806349d1555114610102578063507cd30f1461014f57806356ca623e1461019157806365992abf1461024357806369f9ad2f146102af578063732f21771461034c57806374b920f9146103e6578063b9b9620114610433578063d71a539d146104b3578063e2d1800f146104f5578063f3fff9d714610583575b600080fd5b34156100ca57600080fd5b6100d26105c5565b60405180846000191660001916815260200183815260200182151515158152602001935050505060405180910390f35b341561010d57600080fd5b610139600480803573ffffffffffffffffffffffffffffffffffffffff16906020019091905050610634565b6040518082815260200191505060405180910390f35b341561015a57600080fd5b61018f600480803573ffffffffffffffffffffffffffffffffffffffff16906020019091908035906020019091905050610754565b005b341561019c57600080fd5b6101c8600480803573ffffffffffffffffffffffffffffffffffffffff169060200190919050506109f5565b6040518080602001828103825283818151815260200191508051906020019080838360005b838110156102085780820151818401526020810190506101ed565b50505050905090810190601f1680156102355780820380516001836020036101000a031916815260200191505b509250505060405180910390f35b341561024e57600080fd5b610299600480803573ffffffffffffffffffffffffffffffffffffffff1690602001909190803573ffffffffffffffffffffffffffffffffffffffff16906020019091905050610c44565b6040518082815260200191505060405180910390f35b34156102ba57600080fd5b6102f260048080357effffffffffffffffffffffffffffffffffffffffffffffffffffffffffffff1916906020019091905050610ccb565b60405180827effffffffffffffffffffffffffffffffffffffffffffffffffffffffffffff19167effffffffffffffffffffffffffffffffffffffffffffffffffffffffffffff1916815260200191505060405180910390f35b341561035757600080fd5b6103a460048080356000191690602001909190803573ffffffffffffffffffffffffffffffffffffffff169060200190919080351515906020019091908035906020019091905050610dbb565b604051808273ffffffffffffffffffffffffffffffffffffffff1673ffffffffffffffffffffffffffffffffffffffff16815260200191505060405180910390f35b34156103f157600080fd5b61041d600480803573ffffffffffffffffffffffffffffffffffffffff16906020019091905050610f93565b6040518082815260200191505060405180910390f35b341561043e57600080fd5b6104b1600480803573ffffffffffffffffffffffffffffffffffffffff1690602001909190803573ffffffffffffffffffffffffffffffffffffffff1690602001909190803573ffffffffffffffffffffffffffffffffffffffff16906020019091908035906020019091905050611045565b005b34156104be57600080fd5b6104f3600480803573ffffffffffffffffffffffffffffffffffffffff16906020019091908035906020019091905050611220565b005b341561050057600080fd5b6105086113ce565b6040518080602001828103825283818151815260200191508051906020019080838360005b8381101561054857808201518184015260208101905061052d565b50505050905090810190601f1680156105755780820380516001836020036101000a031916815260200191505b509250505060405180910390f35b341561058e57600080fd5b6105c3600480803573ffffffffffffffffffffffffffffffffffffffff1690602001909190803590602001909190505061152b565b005b600080600080600460003373ffffffffffffffffffffffffffffffffffffffff1673ffffffffffffffffffffffffffffffffffffffff1681526020019081526020016000209050806000015481600201548260010160009054906101000a900460ff1693509350935050909192565b6000806000600160008573ffffffffffffffffffffffffffffffffffffffff1673ffffffffffffffffffffffffffffffffffffffff16815260200190815260200160002060003373ffffffffffffffffffffffffffffffffffffffff1673ffffffffffffffffffffffffffffffffffffffff168152602001908152602001600020541115156106c257600080fd5b6106cb83610f93565b905080600160008573ffffffffffffffffffffffffffffffffffffffff1673ffffffffffffffffffffffffffffffffffffffff16815260200190815260200160002060003373ffffffffffffffffffffffffffffffffffffffff1673ffffffffffffffffffffffffffffffffffffffff1681526020019081526020016000205402915050919050565b61075d3361167c565b151561076857600080fd5b6107718261167c565b15151561077d57600080fd5b60008111151561078c57600080fd5b6000600102600460008473ffffffffffffffffffffffffffffffffffffffff1673ffffffffffffffffffffffffffffffffffffffff1681526020019081526020016000206000015460001916141515156107e557600080fd5b600460008373ffffffffffffffffffffffffffffffffffffffff1673ffffffffffffffffffffffffffffffffffffffff16815260200190815260200160002060010160009054906101000a900460ff1615151561084157600080fd5b6000600160003373ffffffffffffffffffffffffffffffffffffffff1673ffffffffffffffffffffffffffffffffffffffff16815260200190815260200160002060008473ffffffffffffffffffffffffffffffffffffffff1673ffffffffffffffffffffffffffffffffffffffff16815260200190815260200160002054141561096757600260008373ffffffffffffffffffffffffffffffffffffffff1673ffffffffffffffffffffffffffffffffffffffff168152602001908152602001600020805480600101828161091791906117ff565b9160005260206000209001600033909190916101000a81548173ffffffffffffffffffffffffffffffffffffffff021916908373ffffffffffffffffffffffffffffffffffffffff160217905550505b80600160003373ffffffffffffffffffffffffffffffffffffffff1673ffffffffffffffffffffffffffffffffffffffff16815260200190815260200160002060008473ffffffffffffffffffffffffffffffffffffffff1673ffffffffffffffffffffffffffffffffffffffff168152602001908152602001600020600082825401925050819055505050565b6109fd61182b565b610a0561183f565b6000806000806028604051805910610a1a5750595b9080825280601f01601f19166020018201604052509450600093505b6014841015610bf9578360130360080260020a8773ffffffffffffffffffffffffffffffffffffffff16811515610a6957fe5b047f01000000000000000000000000000000000000000000000000000000000000000292506010837f0100000000000000000000000000000000000000000000000000000000000000900460ff16811515610ac057fe5b047f0100000000000000000000000000000000000000000000000000000000000000029150817f01000000000000000000000000000000000000000000000000000000000000009004601002837f01000000000000000000000000000000000000000000000000000000000000009004037f0100000000000000000000000000000000000000000000000000000000000000029050610b5e82610ccb565b8585600202815181101515610b6f57fe5b9060200101907effffffffffffffffffffffffffffffffffffffffffffffffffffffffffffff1916908160001a905350610ba881610ccb565b8560018660020201815181101515610bbc57fe5b9060200101907effffffffffffffffffffffffffffffffffffffffffffffffffffffffffffff1916908160001a9053508380600101945050610a36565b610c386040805190810160405280600281526020017f3078000000000000000000000000000000000000000000000000000000000000815250866116d5565b95505050505050919050565b6000600160008473ffffffffffffffffffffffffffffffffffffffff1673ffffffffffffffffffffffffffffffffffffffff16815260200190815260200160002060008373ffffffffffffffffffffffffffffffffffffffff1673ffffffffffffffffffffffffffffffffffffffff16815260200190815260200160002054905092915050565b6000600a7f010000000000000000000000000000000000000000000000000000000000000002827effffffffffffffffffffffffffffffffffffffffffffffffffffffffffffff19161015610d6a576030827f01000000000000000000000000000000000000000000000000000000000000009004017f0100000000000000000000000000000000000000000000000000000000000000029050610db6565b6057827f01000000000000000000000000000000000000000000000000000000000000009004017f01000000000000000000000000000000000000000000000000000000000000000290505b919050565b6000821580610e1657506000809054906101000a900473ffffffffffffffffffffffffffffffffffffffff1673ffffffffffffffffffffffffffffffffffffffff163373ffffffffffffffffffffffffffffffffffffffff16145b1515610e2157600080fd5b821580610e2f575060018210155b1515610e3a57600080fd5b6000600102600460008673ffffffffffffffffffffffffffffffffffffffff1673ffffffffffffffffffffffffffffffffffffffff16815260200190815260200160002060000154600019161415610f875784600460008673ffffffffffffffffffffffffffffffffffffffff1673ffffffffffffffffffffffffffffffffffffffff168152602001908152602001600020600001816000191690555082600460008673ffffffffffffffffffffffffffffffffffffffff1673ffffffffffffffffffffffffffffffffffffffff16815260200190815260200160002060010160006101000a81548160ff0219169083151502179055508215610f7f5781600460008673ffffffffffffffffffffffffffffffffffffffff1673ffffffffffffffffffffffffffffffffffffffff168152602001908152602001600020600201819055505b839050610f8b565b8390505b949350505050565b6000610f9e8261167c565b1515610fa957600080fd5b6001600460008473ffffffffffffffffffffffffffffffffffffffff1673ffffffffffffffffffffffffffffffffffffffff1681526020019081526020016000206002015410151515610ffb57600080fd5b600460008373ffffffffffffffffffffffffffffffffffffffff1673ffffffffffffffffffffffffffffffffffffffff168152602001908152602001600020600201549050919050565b61104e8461167c565b158015611061575061105f8261167c565b155b151561106c57600080fd5b60008111151561107b57600080fd5b80600160008673ffffffffffffffffffffffffffffffffffffffff1673ffffffffffffffffffffffffffffffffffffffff16815260200190815260200160002060003373ffffffffffffffffffffffffffffffffffffffff1673ffffffffffffffffffffffffffffffffffffffff168152602001908152602001600020541015151561110657600080fd5b80600160008673ffffffffffffffffffffffffffffffffffffffff1673ffffffffffffffffffffffffffffffffffffffff16815260200190815260200160002060003373ffffffffffffffffffffffffffffffffffffffff1673ffffffffffffffffffffffffffffffffffffffff1681526020019081526020016000206000828254039250508190555080600160008573ffffffffffffffffffffffffffffffffffffffff1673ffffffffffffffffffffffffffffffffffffffff16815260200190815260200160002060008473ffffffffffffffffffffffffffffffffffffffff1673ffffffffffffffffffffffffffffffffffffffff1681526020019081526020016000206000828254019250508190555050505050565b600061122b8361167c565b151561123657600080fd5b61123f3361167c565b15151561124b57600080fd5b6000600160008573ffffffffffffffffffffffffffffffffffffffff1673ffffffffffffffffffffffffffffffffffffffff16815260200190815260200160002060003373ffffffffffffffffffffffffffffffffffffffff1673ffffffffffffffffffffffffffffffffffffffff168152602001908152602001600020541115156112d657600080fd5b6000821115156112e557600080fd5b6112ee83610f93565b905081600160008573ffffffffffffffffffffffffffffffffffffffff1673ffffffffffffffffffffffffffffffffffffffff16815260200190815260200160002060003373ffffffffffffffffffffffffffffffffffffffff1673ffffffffffffffffffffffffffffffffffffffff16815260200190815260200160002060008282540392505081905550808202600360003373ffffffffffffffffffffffffffffffffffffffff1673ffffffffffffffffffffffffffffffffffffffff16815260200190815260200160002060008282540192505081905550505050565b6113d661182b565b6113de61182b565b600060206040519081016040528060008152509150600090505b600260003373ffffffffffffffffffffffffffffffffffffffff1673ffffffffffffffffffffffffffffffffffffffff1681526020019081526020016000208054905081101561152357600081111561148d5761148a826040805190810160405280600181526020017f2c000000000000000000000000000000000000000000000000000000000000008152506116d5565b91505b61151682611511600260003373ffffffffffffffffffffffffffffffffffffffff1673ffffffffffffffffffffffffffffffffffffffff168152602001908152602001600020848154811015156114e057fe5b906000526020600020900160009054906101000a900473ffffffffffffffffffffffffffffffffffffffff166109f5565b6116d5565b91508060010190506113f8565b819250505090565b6115343361167c565b151561153f57600080fd5b6115488261167c565b15151561155457600080fd5b60008111151561156357600080fd5b80600160003373ffffffffffffffffffffffffffffffffffffffff1673ffffffffffffffffffffffffffffffffffffffff16815260200190815260200160002060008473ffffffffffffffffffffffffffffffffffffffff1673ffffffffffffffffffffffffffffffffffffffff16815260200190815260200160002054101515156115ee57600080fd5b80600160003373ffffffffffffffffffffffffffffffffffffffff1673ffffffffffffffffffffffffffffffffffffffff16815260200190815260200160002060008473ffffffffffffffffffffffffffffffffffffffff1673ffffffffffffffffffffffffffffffffffffffff168152602001908152602001600020600082825403925050819055505050565b6000600460008373ffffffffffffffffffffffffffffffffffffffff1673ffffffffffffffffffffffffffffffffffffffff16815260200190815260200160002060010160009054906101000a900460ff169050919050565b6116dd61182b565b6117006116e983611708565b6116f285611708565b61173690919063ffffffff16565b905092915050565b611710611853565b600060208301905060408051908101604052808451815260200182815250915050919050565b61173e61182b565b61174661182b565b600083600001518560000151016040518059106117605750595b9080825280601f01601f1916602001820160405250915060208201905061179081866020015187600001516117b4565b6117a985600001518201856020015186600001516117b4565b819250505092915050565b60005b6020821015156117dc57825184526020840193506020830192506020820391506117b7565b6001826020036101000a0390508019835116818551168181178652505050505050565b81548183558181151161182657818360005260206000209182019101611825919061186d565b5b505050565b602060405190810160405280600081525090565b602060405190810160405280600081525090565b604080519081016040528060008152602001600081525090565b61188f91905b8082111561188b576000816000905550600101611873565b5090565b905600a165627a7a72305820394315a4696cc3304ffb1448272d8aaac8e9e99824db1a5137ca924c1318414e0029",
  "source": "pragma solidity ^0.4.9;\nimport \"./utils/strings.sol\";\n\ncontract InfinitePoints {\n    using strings for *;\n\n    address owner;\n\n    // mapping (merchant => mapping (customer => points))\n    mapping(address => mapping (address => uint256)) points;\n    // mapping (customer => merchants[])\n    mapping(address => address[]) merchants;\n    // mapping (customer => wcoin)\n    mapping(address => uint256) wcoins;\n\n    struct Account {\n      bytes32 name;\n      bool isMerchant;\n      uint256 rate;\n    }\n\n    mapping (address => Account) private accounts;\n\n    function InfinitePoints () {\n        owner = msg.sender;\n    }\n\n    function concat (string s1, string s2) internal returns (string) {\n        return s1.toSlice().concat(s2.toSlice());\n    }\n\n    function char(byte b) returns (byte c) {\n        if (b < 10) return byte(uint8(b) + 0x30);\n        else return byte(uint8(b) + 0x57);\n    }\n\n    function toString(address x) returns (string) {\n        bytes memory s = new bytes(40);\n        for (uint i = 0; i < 20; i++) {\n            byte b = byte(uint8(uint(x) / (2 ** (8 * (19 - i)))));\n            byte hi = byte(uint8(b) / 16);\n            byte lo = byte(uint8(b) - 16 * uint8(hi));\n            s[2 * i] = char(hi);\n            s[2 * i + 1] = char(lo);\n        }\n        return concat(\"0x\", string(s));\n    }\n\n    function signup(bytes32 name, address eth, bool isMerchant, uint256 rate) returns (address) {\n        require(!isMerchant || msg.sender == owner);\n        require(!isMerchant || rate >= 1);\n\n        if (accounts[eth].name == 0x0) {\n            accounts[eth].name = name;\n            accounts[eth].isMerchant = isMerchant;\n            if (isMerchant) {\n                accounts[eth].rate = rate;\n            }\n            return (eth);\n        }\n\n        return (eth);\n    }\n\n    function getAccountInfo () constant public returns (bytes32, uint256, bool) {\n        Account acc = accounts[msg.sender];\n        return (acc.name, acc.rate, acc.isMerchant);\n    }\n\n    function addPoints (address customer, uint256 point) public {\n        require(isMerchant(msg.sender));\n        require(!isMerchant(customer));\n        require(point > 0);\n        require(accounts[customer].name != 0x0);\n        require(!accounts[customer].isMerchant);\n\n        if (points[msg.sender][customer] == 0) {\n            merchants[customer].push(msg.sender);\n        }\n        points[msg.sender][customer] += point;\n    }\n\n    function subPoints (address customer, uint256 point) public {\n        require(isMerchant(msg.sender));\n        require(!isMerchant(customer));\n        require(point > 0);\n        require(points[msg.sender][customer] >= point);\n\n        points[msg.sender][customer] -= point;\n    }\n    \n    function getPoints (address merchant, address customer) constant public returns (uint256) {\n        return points[merchant][customer];\n    }\n\n    function getMerchants () constant public returns (string) {\n        string memory merchantList = \"\";\n        for (uint i = 0; i < merchants[msg.sender].length; ++i) {\n            if (i > 0) merchantList = concat(merchantList, \",\");\n            merchantList = concat(merchantList, toString(merchants[msg.sender][i]));\n        }\n        return merchantList;\n    }\n\n    function exchangePoints(address merchantFrom, address merchantTo, address to, uint256 amount) public {\n        require(!isMerchant(merchantFrom) && !isMerchant(to));\n        require(amount > 0);\n        require(points[merchantFrom][msg.sender] >= amount);\n        \n        points[merchantFrom][msg.sender] -= amount;\n        points[merchantTo][to] += amount;\n    }\n\n    function getMerchantRate (address merchant) public returns (uint256) {\n        require(isMerchant(merchant));\n        require(accounts[merchant].rate >= 1);\n        return accounts[merchant].rate;\n    }\n\n    function getWCoin (address merchant) public returns (uint256) {\n        require(points[merchant][msg.sender] > 0);\n        uint256 rate = getMerchantRate(merchant);\n        return points[merchant][msg.sender] * rate;\n    }\n\n    function exchangeToWCoin (address merchant, uint256 amount) public {\n        require(isMerchant(merchant)); // \n        require(!isMerchant(msg.sender)); // only customer can exchange points to wcoin\n        require(points[merchant][msg.sender] > 0);\n        require(amount > 0);\n\n        uint256 rate = getMerchantRate(merchant);\n\n        points[merchant][msg.sender] -= amount;\n        wcoins[msg.sender] += amount * rate;\n    }\n\n    function isMerchant (address id) constant internal returns (bool) {\n        return accounts[id].isMerchant;\n    }\n}\n",
  "sourcePath": "/Users/ninhdh/workspace/blockchain/blockathon/contracts/InfinitePoints.sol",
  "compiler": {
    "name": "solc",
    "version": "0.4.18+commit.9cf6e910.Emscripten.clang"
  },
  "schemaVersion": "1.0.1",
  "updatedAt": "2017-11-25T03:46:00.588Z"
}